{
  "_format": "hh-sol-artifact-1",
  "contractName": "AetheriusEquity",
  "sourceName": "contracts/AetheriusEquity.sol",
  "abi": [
    {
      "inputs": [
        {
          "internalType": "string",
          "name": "_name",
          "type": "string"
        },
        {
          "internalType": "string",
          "name": "_symbol",
          "type": "string"
        },
        {
          "internalType": "address",
          "name": "_registrar",
          "type": "address"
        },
        {
          "internalType": "address",
          "name": "_encryptedStorage",
          "type": "address"
        }
      ],
      "stateMutability": "nonpayable",
      "type": "constructor"
    },
    {
      "anonymous": false,
      "inputs": [
        {
          "indexed": true,
          "internalType": "address",
          "name": "auditor",
          "type": "address"
        },
        {
          "indexed": false,
          "internalType": "bytes",
          "name": "publicKey",
          "type": "bytes"
        }
      ],
      "name": "AuditorKeyRegistered",
      "type": "event"
    },
    {
      "inputs": [
        {
          "internalType": "address",
          "name": "account",
          "type": "address"
        }
      ],
      "name": "balanceOfEncrypted",
      "outputs": [
        {
          "internalType": "bytes",
          "name": "",
          "type": "bytes"
        }
      ],
      "stateMutability": "view",
      "type": "function"
    },
    {
      "inputs": [
        {
          "internalType": "bytes32",
          "name": "destinationChainID",
          "type": "bytes32"
        },
        {
          "internalType": "address",
          "name": "targetAddress",
          "type": "address"
        },
        {
          "internalType": "uint256",
          "name": "amount",
          "type": "uint256"
        }
      ],
      "name": "crossChainLiquidate",
      "outputs": [],
      "stateMutability": "nonpayable",
      "type": "function"
    },
    {
      "inputs": [],
      "name": "encryptedStorage",
      "outputs": [
        {
          "internalType": "contract IEncryptedERC",
          "name": "",
          "type": "address"
        }
      ],
      "stateMutability": "view",
      "type": "function"
    },
    {
      "inputs": [
        {
          "internalType": "address",
          "name": "auditor",
          "type": "address"
        }
      ],
      "name": "grantAuditorAccess",
      "outputs": [],
      "stateMutability": "nonpayable",
      "type": "function"
    },
    {
      "inputs": [],
      "name": "name",
      "outputs": [
        {
          "internalType": "string",
          "name": "",
          "type": "string"
        }
      ],
      "stateMutability": "view",
      "type": "function"
    },
    {
      "inputs": [],
      "name": "owner",
      "outputs": [
        {
          "internalType": "address",
          "name": "",
          "type": "address"
        }
      ],
      "stateMutability": "view",
      "type": "function"
    },
    {
      "inputs": [
        {
          "internalType": "address",
          "name": "auditor",
          "type": "address"
        },
        {
          "internalType": "bytes",
          "name": "publicKey",
          "type": "bytes"
        }
      ],
      "name": "registerAuditorPublicKey",
      "outputs": [],
      "stateMutability": "nonpayable",
      "type": "function"
    },
    {
      "inputs": [],
      "name": "registrar",
      "outputs": [
        {
          "internalType": "contract IRegistrar",
          "name": "",
          "type": "address"
        }
      ],
      "stateMutability": "view",
      "type": "function"
    },
    {
      "inputs": [],
      "name": "symbol",
      "outputs": [
        {
          "internalType": "string",
          "name": "",
          "type": "string"
        }
      ],
      "stateMutability": "view",
      "type": "function"
    },
    {
      "inputs": [
        {
          "internalType": "bytes",
          "name": "encryptedAmount",
          "type": "bytes"
        },
        {
          "internalType": "bytes",
          "name": "zkProof",
          "type": "bytes"
        }
      ],
      "name": "transferEncrypted",
      "outputs": [
        {
          "internalType": "bool",
          "name": "",
          "type": "bool"
        }
      ],
      "stateMutability": "nonpayable",
      "type": "function"
    }
  ],
  "bytecode": "0x60806040523480156200001157600080fd5b50604051620017cf380380620017cf83398181016040528101906200003791906200031f565b336000806101000a81548173ffffffffffffffffffffffffffffffffffffffff021916908373ffffffffffffffffffffffffffffffffffffffff16021790555083600390816200008891906200061a565b5082600490816200009a91906200061a565b5081600160006101000a81548173ffffffffffffffffffffffffffffffffffffffff021916908373ffffffffffffffffffffffffffffffffffffffff16021790555080600260006101000a81548173ffffffffffffffffffffffffffffffffffffffff021916908373ffffffffffffffffffffffffffffffffffffffff1602179055505050505062000701565b6000604051905090565b600080fd5b600080fd5b600080fd5b600080fd5b6000601f19601f8301169050919050565b7f4e487b7100000000000000000000000000000000000000000000000000000000600052604160045260246000fd5b620001908262000145565b810181811067ffffffffffffffff82111715620001b257620001b162000156565b5b80604052505050565b6000620001c762000127565b9050620001d5828262000185565b919050565b600067ffffffffffffffff821115620001f857620001f762000156565b5b620002038262000145565b9050602081019050919050565b60005b838110156200023057808201518184015260208101905062000213565b60008484015250505050565b6000620002536200024d84620001da565b620001bb565b90508281526020810184848401111562000272576200027162000140565b5b6200027f84828562000210565b509392505050565b600082601f8301126200029f576200029e6200013b565b5b8151620002b18482602086016200023c565b91505092915050565b600073ffffffffffffffffffffffffffffffffffffffff82169050919050565b6000620002e782620002ba565b9050919050565b620002f981620002da565b81146200030557600080fd5b50565b6000815190506200031981620002ee565b92915050565b600080600080608085870312156200033c576200033b62000131565b5b600085015167ffffffffffffffff8111156200035d576200035c62000136565b5b6200036b8782880162000287565b945050602085015167ffffffffffffffff8111156200038f576200038e62000136565b5b6200039d8782880162000287565b9350506040620003b08782880162000308565b9250506060620003c38782880162000308565b91505092959194509250565b600081519050919050565b7f4e487b7100000000000000000000000000000000000000000000000000000000600052602260045260246000fd5b600060028204905060018216806200042257607f821691505b602082108103620004385762000437620003da565b5b50919050565b60008190508160005260206000209050919050565b60006020601f8301049050919050565b600082821b905092915050565b600060088302620004a27fffffffffffffffffffffffffffffffffffffffffffffffffffffffffffffffff8262000463565b620004ae868362000463565b95508019841693508086168417925050509392505050565b6000819050919050565b6000819050919050565b6000620004fb620004f5620004ef84620004c6565b620004d0565b620004c6565b9050919050565b6000819050919050565b6200051783620004da565b6200052f620005268262000502565b84845462000470565b825550505050565b600090565b6200054662000537565b620005538184846200050c565b505050565b5b818110156200057b576200056f6000826200053c565b60018101905062000559565b5050565b601f821115620005ca5762000594816200043e565b6200059f8462000453565b81016020851015620005af578190505b620005c7620005be8562000453565b83018262000558565b50505b505050565b600082821c905092915050565b6000620005ef60001984600802620005cf565b1980831691505092915050565b60006200060a8383620005dc565b9150826002028217905092915050565b6200062582620003cf565b67ffffffffffffffff81111562000641576200064062000156565b5b6200064d825462000409565b6200065a8282856200057f565b600060209050601f8311600181146200069257600084156200067d578287015190505b620006898582620005fc565b865550620006f9565b601f198416620006a2866200043e565b60005b82811015620006cc57848901518255600182019150602085019450602081019050620006a5565b86831015620006ec5784890151620006e8601f891682620005dc565b8355505b6001600288020188555050505b505050505050565b6110be80620007116000396000f3fe608060405234801561001057600080fd5b506004361061009e5760003560e01c80638da5cb5b116100665780638da5cb5b1461014957806395d89b41146101675780639e1b83f314610185578063a0b66032146101a1578063c33d0b56146101bd5761009e565b806306fdde03146100a35780631f644365146100c15780632b20e397146100dd578063794cccb6146100fb5780638c465b0c14610119575b600080fd5b6100ab6101ed565b6040516100b89190610847565b60405180910390f35b6100db60048036038101906100d69190610947565b61027b565b005b6100e561030e565b6040516100f291906109f9565b60405180910390f35b610103610334565b6040516101109190610a35565b60405180910390f35b610133600480360381019061012e9190610ab5565b61035a565b6040516101409190610b51565b60405180910390f35b61015161040a565b60405161015e9190610b7b565b60405180910390f35b61016f61042e565b60405161017c9190610847565b60405180910390f35b61019f600480360381019061019a9190610b96565b6104bc565b005b6101bb60048036038101906101b69190610bc3565b610599565b005b6101d760048036038101906101d29190610b96565b61070d565b6040516101e49190610c78565b60405180910390f35b600380546101fa90610cc9565b80601f016020809104026020016040519081016040528092919081815260200182805461022690610cc9565b80156102735780601f1061024857610100808354040283529160200191610273565b820191906000526020600020905b81548152906001019060200180831161025657829003601f168201915b505050505081565b60008054906101000a900473ffffffffffffffffffffffffffffffffffffffff1673ffffffffffffffffffffffffffffffffffffffff163373ffffffffffffffffffffffffffffffffffffffff1614610309576040517f08c379a000000000000000000000000000000000000000000000000000000000815260040161030090610d6c565b60405180910390fd5b505050565b600160009054906101000a900473ffffffffffffffffffffffffffffffffffffffff1681565b600260009054906101000a900473ffffffffffffffffffffffffffffffffffffffff1681565b6000600260009054906101000a900473ffffffffffffffffffffffffffffffffffffffff1673ffffffffffffffffffffffffffffffffffffffff1663e701256e868686866040518563ffffffff1660e01b81526004016103bd9493929190610dc8565b6020604051808303816000875af11580156103dc573d6000803e3d6000fd5b505050506040513d601f19601f820116820180604052508101906104009190610e2f565b9050949350505050565b60008054906101000a900473ffffffffffffffffffffffffffffffffffffffff1681565b6004805461043b90610cc9565b80601f016020809104026020016040519081016040528092919081815260200182805461046790610cc9565b80156104b45780601f10610489576101008083540402835291602001916104b4565b820191906000526020600020905b81548152906001019060200180831161049757829003601f168201915b505050505081565b60008054906101000a900473ffffffffffffffffffffffffffffffffffffffff1673ffffffffffffffffffffffffffffffffffffffff163373ffffffffffffffffffffffffffffffffffffffff161461054a576040517f08c379a000000000000000000000000000000000000000000000000000000000815260040161054190610d6c565b60405180910390fd5b8073ffffffffffffffffffffffffffffffffffffffff167f684513d81ae6b79ead0b0912dc7d01f69e1c5e708c879d6a683603eefa48236860405161058e90610ea8565b60405180910390a250565b60008054906101000a900473ffffffffffffffffffffffffffffffffffffffff1673ffffffffffffffffffffffffffffffffffffffff163373ffffffffffffffffffffffffffffffffffffffff1614610627576040517f08c379a000000000000000000000000000000000000000000000000000000000815260040161061e90610d6c565b60405180910390fd5b600160009054906101000a900473ffffffffffffffffffffffffffffffffffffffff1673ffffffffffffffffffffffffffffffffffffffff166303f524938484846040518463ffffffff1660e01b815260040161068693929190610ec8565b600060405180830381600087803b1580156106a057600080fd5b505af11580156106b4573d6000803e3d6000fd5b505050508273ffffffffffffffffffffffffffffffffffffffff167f684513d81ae6b79ead0b0912dc7d01f69e1c5e708c879d6a683603eefa4823688383604051610700929190610efa565b60405180910390a2505050565b6060600260009054906101000a900473ffffffffffffffffffffffffffffffffffffffff1673ffffffffffffffffffffffffffffffffffffffff1663402dc4e4836040518263ffffffff1660e01b815260040161076a9190610b7b565b600060405180830381865afa158015610787573d6000803e3d6000fd5b505050506040513d6000823e3d601f19601f820116820180604052508101906107b0919061103f565b9050919050565b600081519050919050565b600082825260208201905092915050565b60005b838110156107f15780820151818401526020810190506107d6565b60008484015250505050565b6000601f19601f8301169050919050565b6000610819826107b7565b61082381856107c2565b93506108338185602086016107d3565b61083c816107fd565b840191505092915050565b60006020820190508181036000830152610861818461080e565b905092915050565b6000604051905090565b600080fd5b600080fd5b6000819050919050565b6108908161087d565b811461089b57600080fd5b50565b6000813590506108ad81610887565b92915050565b600073ffffffffffffffffffffffffffffffffffffffff82169050919050565b60006108de826108b3565b9050919050565b6108ee816108d3565b81146108f957600080fd5b50565b60008135905061090b816108e5565b92915050565b6000819050919050565b61092481610911565b811461092f57600080fd5b50565b6000813590506109418161091b565b92915050565b6000806000606084860312156109605761095f610873565b5b600061096e8682870161089e565b935050602061097f868287016108fc565b925050604061099086828701610932565b9150509250925092565b6000819050919050565b60006109bf6109ba6109b5846108b3565b61099a565b6108b3565b9050919050565b60006109d1826109a4565b9050919050565b60006109e3826109c6565b9050919050565b6109f3816109d8565b82525050565b6000602082019050610a0e60008301846109ea565b92915050565b6000610a1f826109c6565b9050919050565b610a2f81610a14565b82525050565b6000602082019050610a4a6000830184610a26565b92915050565b600080fd5b600080fd5b600080fd5b60008083601f840112610a7557610a74610a50565b5b8235905067ffffffffffffffff811115610a9257610a91610a55565b5b602083019150836001820283011115610aae57610aad610a5a565b5b9250929050565b60008060008060408587031215610acf57610ace610873565b5b600085013567ffffffffffffffff811115610aed57610aec610878565b5b610af987828801610a5f565b9450945050602085013567ffffffffffffffff811115610b1c57610b1b610878565b5b610b2887828801610a5f565b925092505092959194509250565b60008115159050919050565b610b4b81610b36565b82525050565b6000602082019050610b666000830184610b42565b92915050565b610b75816108d3565b82525050565b6000602082019050610b906000830184610b6c565b92915050565b600060208284031215610bac57610bab610873565b5b6000610bba848285016108fc565b91505092915050565b600080600060408486031215610bdc57610bdb610873565b5b6000610bea868287016108fc565b935050602084013567ffffffffffffffff811115610c0b57610c0a610878565b5b610c1786828701610a5f565b92509250509250925092565b600081519050919050565b600082825260208201905092915050565b6000610c4a82610c23565b610c548185610c2e565b9350610c648185602086016107d3565b610c6d816107fd565b840191505092915050565b60006020820190508181036000830152610c928184610c3f565b905092915050565b7f4e487b7100000000000000000000000000000000000000000000000000000000600052602260045260246000fd5b60006002820490506001821680610ce157607f821691505b602082108103610cf457610cf3610c9a565b5b50919050565b7f4165746865726975734571756974793a2063616c6c6572206973206e6f74207460008201527f6865206f776e6572000000000000000000000000000000000000000000000000602082015250565b6000610d566028836107c2565b9150610d6182610cfa565b604082019050919050565b60006020820190508181036000830152610d8581610d49565b9050919050565b82818337600083830152505050565b6000610da78385610c2e565b9350610db4838584610d8c565b610dbd836107fd565b840190509392505050565b60006040820190508181036000830152610de3818688610d9b565b90508181036020830152610df8818486610d9b565b905095945050505050565b610e0c81610b36565b8114610e1757600080fd5b50565b600081519050610e2981610e03565b92915050565b600060208284031215610e4557610e44610873565b5b6000610e5384828501610e1a565b91505092915050565b7f3078300000000000000000000000000000000000000000000000000000000000600082015250565b6000610e92600383610c2e565b9150610e9d82610e5c565b602082019050919050565b60006020820190508181036000830152610ec181610e85565b9050919050565b6000604082019050610edd6000830186610b6c565b8181036020830152610ef0818486610d9b565b9050949350505050565b60006020820190508181036000830152610f15818486610d9b565b90509392505050565b600080fd5b7f4e487b7100000000000000000000000000000000000000000000000000000000600052604160045260246000fd5b610f5b826107fd565b810181811067ffffffffffffffff82111715610f7a57610f79610f23565b5b80604052505050565b6000610f8d610869565b9050610f998282610f52565b919050565b600067ffffffffffffffff821115610fb957610fb8610f23565b5b610fc2826107fd565b9050602081019050919050565b6000610fe2610fdd84610f9e565b610f83565b905082815260208101848484011115610ffe57610ffd610f1e565b5b6110098482856107d3565b509392505050565b600082601f83011261102657611025610a50565b5b8151611036848260208601610fcf565b91505092915050565b60006020828403121561105557611054610873565b5b600082015167ffffffffffffffff81111561107357611072610878565b5b61107f84828501611011565b9150509291505056fea26469706673582212201c8674a8687388090474c38e9d3f920b9d9f9f4cdf4e6e5423e8befa96676eef64736f6c63430008180033",
  "linkReferences": {},
  "deployedLinkReferences": {}
}